:020000040800F2
:1000000000280020B5160008391400083F14000825
:10001000451400084B1400085114000800000000AB
:10002000000000000000000000000000571400085D
:1000300063140008000000006F1400087B1400081F
:10004000FD160008FD160008FD160008FD16000844
:10005000FD160008FD160008FD160008FD16000834
:10006000FD160008FD160008FD160008FD16000824
:10007000FD160008FD160008FD160008FD16000814
:10008000FD160008FD160008FD160008FD16000804
:10009000FD160008FD160008FD160008FD160008F4
:1000A000FD160008FD160008FD160008FD160008E4
:1000B00089140008FD16000800000000FD16000865
:1000C000FD1600080000000000000000FD160008FA
:1000D00000000000FD160008FD16000800000000EA
:1000E000FD160008FD160008FD16000800000000BF
:1000F0000000000000000000000000000000000000
:0C01000000000000000000005FF808F1A3
:10010C0010B5054C237833B9044B13B10448AFF345
:10011C0000800123237010BD70000020000000003F
:10012C002C2D000808B5034B1BB103490348AFF352
:10013C00008008BD00000000740000202C2D000879
:10014C0080B483B000AF7860064A7B6852F82330E5
:10015C00012B01D1012300E0002318460C37BD46CA
:10016C0080BC70478C00002080B582B000AF0023AB
:10017C007B6012E0574A7B6852F8232056497B6813
:10018C0041F82320554A7B6852F8232051497B685B
:10019C0041F823207B6801337B607B68022BE9DD0F
:1001AC0040214F4801F090FD03461A464B4B1A6014
:1001BC0080214B4801F088FD03461A46474B5A6094
:1001CC004FF48071464801F07FFD03461A46434BBD
:1001DC009A6000233B6075E03E4A3B6852F823204E
:1001EC003E493B6851F823309A4268D13A4A3B6801
:1001FC0052F8232037493B6851F823309A425ED19C
:10020C00354A3B6852F8232036493B6851F8233075
:10021C009A4217D0304A3B6852F8232031493B6848
:10022C0041F823202F4A3B6852F82330002B21D170
:10023C002D4B4FF4FA721A602C4A3B68012142F89C
:10024C00231017E0284B1B68013B274A1360264BF1
:10025C001B68002B0ED1244B4FF4FA721A60214A02
:10026C003B6852F82330002B04D1204A3B68012113
:10027C0042F823101B4A3B6852F82330002B19D14B
:10028C001B4A3B6852F823305A1C19493B6841F809
:10029C002320174A3B6852F82330C72B0FDD134A33
:1002AC003B68012142F82310114A3B68BE2142F8F9
:1002BC00231004E00E4A3B68002142F823103B68EF
:1002CC0001333B603B68022B86DD00BF00BF083763
:1002DC00BD4680BD0C00002018000020000000204E
:1002EC000008014024000020300000208C00002079
:1002FC009800002080B58EB000AF786039607B68C4
:10030C006A4A82FB03129210DB17D31A7B637A685A
:10031C00664B83FB02139910D317C91A0B469B002B
:10032C000B445B00D31A3B6307F11C0300221A60D9
:10033C005A609A60DA6007F10C0300221A605A6066
:10034C009A60DA600323FB6228E07B6B002B03F0DE
:10035C000103B8BF5B421A46FB6A9B0007F13801E8
:10036C000B4443F81C2C7B6BDA0F13445B107B6340
:10037C003B6B002B03F00103B8BF5B421A46FB6AD0
:10038C009B0007F138010B4443F82C2C3B6BDA0F24
:10039C0013445B103B63FB6A013BFB62FB6A002B63
:1003AC00D3DA3B68002B3BD1BB6ADBB21A46022185
:1003BC003F4801F0A0FC7B6ADBB21A4604213C48A2
:1003CC0001F099FC3B6ADBB21A460821384801F06F
:1003DC0092FCFB69DBB21A461021354801F08BFC0C
:1003EC00BB69DBB21A464FF48061314801F083FCE3
:1003FC007B69DBB21A464FF400612D4801F07BFC9F
:10040C003B69DBB21A464FF48051294801F073FC6A
:10041C00FB68DBB21A464FF40051254801F06BFC27
:10042C003B68012B3DD1BB6ADBB21A464021214807
:10043C0001F061FC7B6ADBB21A4680211D4801F099
:10044C005AFC3B6ADBB21A464FF48071194801F032
:10045C0052FCFB69DBB21A464FF40071154801F0EF
:10046C004AFCBB69DBB21A464FF48061114801F0BB
:10047C0042FC7B69DBB21A464FF400610D4801F077
:10048C003AFC3B69DBB21A464FF48051094801F043
:10049C0032FCFB68DBB21A464FF40051054801F000
:1004AC002AFC00BF3837BD4680BD00BF6766666654
:1004BC0000080140000C014080B582B000AF8D4BAC
:1004CC009B68012B07D120218B4801F02CFC642167
:1004DC00022000F0E3FF894B1B68082B00F2EE8131
:1004EC0001A252F823F000BF19050008C908000842
:1004FC00C9080008C9080008C908000867050008F1
:10050C003306000835070008FF0700087B4B05225F
:10051C001A604FF49671012000F0C0FF00210020FA
:10052C0000F0BCFF00F0FEFF754B1B68754A1360B2
:10053C00754B1B68754A1360754B1B68754A1360C5
:10054C006F4B1B68744A13606F4B1B68734A1360C4
:10055C006F4B1B68724A1360B9E101F007F8654BE9
:10056C001B68002B1BD0674B1B68013B654A136053
:10057C00684B1B68013B674A1360624B1B68002188
:10058C001846FFF7B7FE634B1B6801211846FFF7AF
:10059C00B1FE01F02BF86421002000F07FFF554BD9
:1005AC005B68002B0ED0554B06221A6000F0BAFF88
:1005BC00564B1B68642202FB03F33B603968012035
:1005CC0000F06CFF0120FFF7BBFD0346002B16D09B
:1005DC004A4B09221A604FF47A71012000F05EFF39
:1005EC0000F0A0FF474B0A221A604A4B0A221A60FD
:1005FC004C4B00225A600121002000F04FFF0020DC
:10060C00FFF79EFD0346002B00F05A813B4B022264
:10061C001A6000F087FF0121002000F03FFF414BE2
:10062C0000221A604CE100F0B1FF324B1B68002B2A
:10063C001BD0344B1B68013B324A1360334B1B6895
:10064C00013B324A13602F4B1B6800211846FFF701
:10065C0051FE2E4B1B6801211846FFF74BFE00F094
:10066C00C5FF6421002000F019FF224B5B68002BB2
:10067C000ED0224B07221A6000F054FF254B1B684A
:10068C00642202FB03F37B607968012000F006FF13
:10069C000120FFF755FD0346002B16D0174B0A22FD
:1006AC001A604FF47A71012000F0F8FE00F03AFF66
:1006BC00144B0A221A60154B0A221A60194B00229D
:1006CC005A600121002000F0E9FE0020FFF738FD00
:1006DC000346002B00F0F680084B02221A6000F053
:1006EC0021FF0121002000F0D9FE0E4B00221A60E0
:1006FC00E8E000BFA800002000080140A400002092
:10070C004C00002034000020500000203800002055
:10071C00540000203C000020400000204400002039
:10072C00480000208C00002000F040FF6A4B1B6842
:10073C00002B1BD0694B1B68013B684A1360684B4C
:10074C001B68013B664A1360654B1B680021184609
:10075C00FFF7D0FD614B1B6801211846FFF7CAFD5E
:10076C0000F044FF6421002000F098FE5A4B5B68B7
:10077C00002B0ED05B4B08221A6000F0D3FE5A4BB4
:10078C001B68642202FB03F33B603968012000F014
:10079C0085FE0120FFF7D4FC0346002B16D0514BED
:1007AC000B221A604D4B0A221A604D4B0A221A601A
:1007BC0000F0B8FE4FF47A71012000F06FFE4B4B45
:1007CC0000225A600121002000F068FE0020FFF793
:1007DC00B7FC0346002B77D0424B02221A6000F084
:1007EC00A1FE0121002000F059FE404B00221A60AE
:1007FC006AE000F0EBFE384B1B68002B1BD0374B2C
:10080C001B68013B354A1360374B1B68013B364A6A
:10081C001360354B1B6800211846FFF76BFD2F4BFF
:10082C001B6801211846FFF765FD00F0DFFE64210F
:10083C00002000F033FE284B5B68002B0ED0294BB8
:10084C0005221A6000F06EFE254B1B68642202FB29
:10085C0003F37B607968012000F020FE0120FFF794
:10086C006FFC0346002B16D01E4B0C221A601B4B40
:10087C000A221A601C4B0A221A604FF47A7101206A
:10088C0000F00CFE00F04EFE184B00225A600121C5
:10089C00002000F003FE0020FFF752FC0346002B63
:1008AC0014D0104B02221A6000F03CFE01210020F3
:1008BC0000F0F4FD0D4B00221A6007E000BF06E0CB
:1008CC0000BF04E000BF02E000BF00E000BF00BFBB
:1008DC000837BD4680BD00BFA800002034000020B2
:1008EC003C000020A4000020380000208C000020D8
:1008FC0080B500AFA84B1B68093B032B00F2C981E4
:10090C0001A252F823F000BF25090008FB090008DA
:10091C00CF0A0008C90B000800F028FE9F4B5B684B
:10092C00002B19D09C4B05221A6000F0FBFD9C4B50
:10093C001B689C4A13609C4B1B689C4A13609C4B25
:10094C001B689C4A1360994B1B68642202FB03F3DF
:10095C001946012000F0A2FD0120FFF7F1FB034630
:10096C00002B12D08C4B0A221A608E4B0A221A6072
:10097C00904B0A221A6000F0D5FD4FF47A710120D9
:10098C0000F08CFD8C4B00225A600020FFF7D8FB46
:10099C000346002B0BD0804B02221A6000F0C2FDE4
:1009AC000121002000F07AFD834B00221A607B4B62
:1009BC001B68002B00F06F817A4B1B68013B794A56
:1009CC0013607A4B1B68013B784A1360754B1B68AC
:1009DC0000211846FFF78EFC744B1B68012118464A
:1009EC00FFF788FC6421002000F058FD53E100F073
:1009FC00CDFD6A4B5B68002B19D0674B05221A6042
:100A0C0000F090FD664B1B68664A1360664B1B68D2
:100A1C00664A1360664B1B68664A1360634B1B681F
:100A2C00642202FB03F31946012000F037FD5B4BF7
:100A3C001B68002B19D05B4B1B68013B594A136098
:100A4C005C4B1B68013B5B4A1360564B1B680021D7
:100A5C001846FFF74FFC574B1B6801211846FFF750
:100A6C0049FC6421002000F019FD0120FFF768FB10
:100A7C000346002B11D0484B0B221A606421012035
:100A8C0000F00CFD00F04EFD464B0A221A60474B5D
:100A9C000A221A60484B00225A600020FFF750FBD4
:100AAC000346002B00F0F9803B4B02221A6000F049
:100ABC0039FD0121002000F0F1FC3F4B00221A60AF
:100ACC00EBE000F073FD354B1B68002B19D0354B58
:100ADC001B68013B334A1360344B1B68013B334AA0
:100AEC001360324B1B6800211846FFF703FC2D4B9B
:100AFC001B6801211846FFF7FDFB6421002000F064
:100B0C00CDFC264B5B68002B19D0234B05221A60B9
:100B1C0000F008FD224B1B68224A1360224B1B6815
:100B2C00224A1360224B1B68224A13601F4B1B681E
:100B3C00642202FB03F31946012000F0AFFC0120F4
:100B4C00FFF7FEFA0346002B11D0134B0C221A6050
:100B5C00144B0A221A60174B0A221A6064210120D6
:100B6C0000F09CFC00F0DEFC134B00225A600020CD
:100B7C00FFF7E6FA0346002B00F09180064B0222A9
:100B8C001A6000F0CFFC0121002000F087FC0A4B1A
:100B9C0000221A6083E000BFA4000020A8000020FF
:100BAC004000002034000020480000203C000020C1
:100BBC0044000020380000208C00002000F006FDCE
:100BCC00394B5B68002B19D0384B05221A6000F0AA
:100BDC00A9FC374B1B68374A1360374B1B68374AE5
:100BEC001360374B1B68374A1360344B1B68642205
:100BFC0002FB03F31946012000F050FC2A4B1B6842
:100C0C00002B1BD02B4B1B68013B2A4A13602D4B2E
:100C1C001B68013B2B4A13602A4B1B6800211846AA
:100C2C00FFF768FB234B1B6801211846FFF762FB9B
:100C3C0000F0DCFC6421002000F030FC0120FFF708
:100C4C007FFA0346002B11D0184B09221A6064213D
:100C5C00012000F023FC00F065FC164B0A221A6000
:100C6C00164B0A221A60184B00225A600020FFF71C
:100C7C0067FA0346002B14D00C4B02221A6000F0CA
:100C8C0051FC0121002000F009FC0F4B00221A60DE
:100C9C0007E000BF06E000BF04E000BF02E000BFB9
:100CAC0000E000BF00BF80BDA8000020A400002011
:100CBC004000002034000020480000203C000020B0
:100CCC0044000020380000208C00002080B500AFCC
:100CDC009A4B1B68013B032B00F2F08101A252F8E6
:100CEC0023F000BF010D0008090D0008530E000889
:100CFC00AB0F0008914B00221A60E6E18F4B1B688A
:100D0C0001211846FFF7F6FA8D4B1B680021184697
:100D1C00FFF7F0FA8B4B1B68002B08D0874B1B6836
:100D2C00184600F08DFC3221002000F0B7FB0020AB
:100D3C00FFF706FA0346002B07D0804B03221A60FC
:100D4C0000F0F0FB804B00221A600120FFF7F8F94D
:100D5C000346002B14D07C4B00225A60784B1B6846
:100D6C000133774A1360764B1B68642B02D1744BAA
:100D7C0001221A60724B1B6800211846FFF7BAFA61
:100D8C000220FFF7DDF90346002B00F099816E4B32
:100D9C0000229A606A4B1B68022B35DD684B1B687E
:100DAC00612B31DC694B1A68654B1B689A4205DA7A
:100DBC00634B1A68654B1B68D31A01E0644B1B68C4
:100DCC00644A1360644B1A68624B1B681344632BB0
:100DDC0017DC5B4B1A685F4B1B68D31A5E4A1360B7
:100DEC00574B1B685D4A13605C4B1B685C4A136075
:100DFC00584B1B68564A1360574B1B68534A136079
:100E0C000EE000F079F90BE0564B1B68534A136067
:100E1C00554B1B684F4A1360544B1B684E4A13606A
:100E2C0000F080FB454B05221A604B4B1B6864227B
:100E3C0002FB03F31946012000F030FB01210020D6
:100E4C0000F02CFB3CE13D4B1B6801211846FFF7E1
:100E5C0051FA474B1B6800211846FFF74BFA394BE8
:100E6C001B68002B08D0354B1B68184600F0E8FBBC
:100E7C003221002000F012FB0020FFF761F903463D
:100E8C00002B07D02D4B04221A6000F04BFB2E4B8D
:100E9C0000221A600120FFF753F90346002B14D0EF
:100EAC00294B00225A60324B1B680133304A1360C5
:100EBC002F4B1B68642B02D12D4B01221A602C4B3B
:100ECC001B6800211846FFF715FA0220FFF738F9C6
:100EDC000346002B00F0F6801B4B00229A60244B3B
:100EEC001A681F4B1B689A4205DA1D4B1A68204B77
:100EFC001B68D31A01E0154B1B68174A1360164B7D
:100F0C001A681B4B1B681344632B33DC124B1A6897
:100F1C00174B1B681344114A1360154B1B680D4A81
:100F2C0013600E4B1B680E4A13600A4B1B68084A71
:100F3C001360094B1B68054A13601DE0A4000020D8
:100F4C0058000020A80000208C0000204800002041
:100F5C0044000020380000203C0000203400002019
:100F6C00400000204C0000205000002054000020C5
:100F7C005C00002000F0C0F800F0D4FA544B0522BD
:100F8C001A60544B1B68642202FB03F319460120C0
:100F9C0000F084FA0121002000F080FA92E04C4B22
:100FAC001B6801211846FFF7A5F94B4B1B68002164
:100FBC001846FFF79FF9494B1B68002B08D0444B90
:100FCC001B68184600F03CFB3221002000F066FA4A
:100FDC000020FFF7B5F80346002B07D03C4B01224D
:100FEC001A6000F09FFA3E4B00221A600120FFF7B6
:100FFC00A7F80346002B14D0394B00225A60364B0D
:10100C001B680133344A1360334B1B68642B02D1C9
:10101C00314B01221A60304B1B6800211846FFF738
:10102C0069F90220FFF78CF80346002B4CD02C4BAF
:10103C0000229A60284B1A682A4B1B689A4205DAE0
:10104C00284B1A68244B1B68D31A01E0264B1B68EB
:10105C00264A1360204B1A68244B1B681344632BDD
:10106C0017DC1D4B1A68214B1B681344204A136074
:10107C00194B1B68174A13601D4B1B68194A1360E8
:10108C001A4B1B68184A1360124B1B68194A1360E1
:10109C0001E000F031F800F045FA0D4B05221A6022
:1010AC000C4B1B68642202FB03F31946012000F071
:1010BC00F5F90121002000F0F1F905E000BF04E092
:1010CC0000BF02E000BF00E000BF00BF80BD00BF5A
:1010DC00A40000203C00002060000020A80000209C
:1010EC008C0000204000002044000020380000202C
:1010FC00340000204800002080B400AF0D4B1B686A
:10110C000D4A13600D4B1B680D4A13600D4B1B6889
:10111C000D4A1360084B1B680C4A1360084B1B6884
:10112C000B4A1360084B1B680A4A136000BFBD468C
:10113C0080BC70474C000020340000205000002080
:10114C0038000020540000203C000020400000200B
:10115C00440000204800002080B500AF00F0CAFA1F
:10116C0000F010F800F04AF800F094F8044801F090
:10117C001FFAFFF7A1F9FFF7BBFBFFF7A7FDF8E795
:10118C00F800002080B590B000AF07F118032822BA
:10119C000021184601F0BCFD3B1D00221A605A606C
:1011AC009A60DA601A610223BB610123BB621023CF
:1011BC00FB6200237B6307F11803184600F0CCFD9B
:1011CC000346002B01D000F0D5F80F237B600023E1
:1011DC00BB600023FB6000233B6100237B613B1D54
:1011EC000021184601F038F80346002B01D000F01E
:1011FC00C1F800BF4037BD4680BD000080B586B049
:10120C0000AF07F1080300221A605A609A60DA6096
:10121C003B4600221A605A601D4B4FF080421A6008
:10122C001B4B41F63F725A60194B00229A60184BC7
:10123C000922DA60164B00221A61154B00229A61C2
:10124C00134801F065F90346002B01D000F092F829
:10125C004FF48053BB6007F1080319460C4801F0AA
:10126C00E3FA0346002B01D000F084F800233B6026
:10127C0000237B603B461946054801F0BBFC034646
:10128C00002B01D000F076F800BF1837BD4680BDAA
:10129C00F800002080B586B000AF07F108030022EB
:1012AC001A605A609A60DA60294B9B69284A43F0AD
:1012BC0004039361264B9B6903F004037B607B68FA
:1012CC00234B9B69224A43F008039361204B9B6993
:1012DC0003F008033B603B68002243F63E411D4887
:1012EC0000F009FD002243F6FF711B4800F003FDDE
:1012FC0043F63E43BB600123FB6000233B610223AA
:10130C007B6107F108031946124800F063FB4FF4A8
:10131C00E073BB600023FB6000233B6107F1080313
:10132C0019460C4800F056FB43F6FF73BB600123D3
:10133C00FB6000233B6102237B6107F10803194624
:10134C00054800F047FB00BF1837BD4680BD00BF05
:10135C000010024000080140000C014080B582B032
:10136C0000AF7860FEF700FF00F0B0F800BF083760
:10137C00BD4680BD80B400AF72B600BFFEE7000072
:10138C0080B485B000AF154B9B69144A43F0010340
:10139C009361124B9B6903F00103BB60BB680F4B5D
:1013AC00DB690E4A43F08053D3610C4BDB6903F0CD
:1013BC0080537B607B680A4B5B68FB60FB6823F0A7
:1013CC00E063FB60FB6843F08063FB60044AFB68EE
:1013DC00536000BF1437BD4680BC704700100240FC
:1013EC000000014080B584B000AF78607B681B685A
:1013FC00B3F1804F13D10C4BDB690B4A43F0010363
:10140C00D361094BDB6903F00103FB60FB6800222D
:10141C0000211C2000F0A7FA1C2000F0C0FA00BF2D
:10142C001037BD4680BD00BF0010024080B400AF35
:10143C00FEE780B400AFFEE780B400AFFEE780B4F7
:10144C0000AFFEE780B400AFFEE780B400AF00BF92
:10145C00BD4680BC704780B400AF00BFBD4680BCA9
:10146C00704780B400AF00BFBD4680BC704780B5EC
:10147C0000AF00F085F900BF80BD000080B500AF63
:10148C00024801F0E1F800BF80BD00BFF800002069
:10149C0080B400AF00BFBD4680BC704780B483B041
:1014AC0000AF78603960074A7B68002142F823104E
:1014BC0005497B683A6841F8232000BF0C37BD46CC
:1014CC0080BC7047A8000020D000002080B483B0FE
:1014DC0000AF00237B6017E0104A7B6852F8233082
:1014EC00002B09DD0D4A7B6852F823305A1E0B493C
:1014FC007B6841F8232004E0094A7B68012142F80B
:10150C0023107B6801337B607B68092BE4DD00BF13
:10151C0000BF0C37BD4680BC704700BFD000002018
:10152C00A800002080B500AF002201210E4800F079
:10153C00E2FB002202210C4800F0DDFB002204211A
:10154C00094800F0D8FB00220821074800F0D3FB23
:10155C0000221021044800F0CEFB0022202102487A
:10156C0000F0C9FB00BF80BD000C014080B500AF8E
:10157C0001220121044800F0BEFB01222021024877
:10158C0000F0B9FB00BF80BD000C014080B500AF7E
:10159C0001220121044800F0AEFB0122082102487F
:1015AC0000F0A9FB00BF80BD000C014080B500AF6E
:1015BC0001220221044800F09EFB01221021024866
:1015CC0000F099FB00BF80BD000C014080B500AF5E
:1015DC0001220221044800F08EFB01220421024862
:1015EC0000F089FB00BF80BD000C014080B400AF4F
:1015FC000D4B1B68002B03DC0C4B1B680A4A136059
:10160C000B4B1B68002B03DC0A4B1B68084A13604E
:10161C00094B1B68002B03DC084B1B68064A136044
:10162C0000BFBD4680BC7047340000204000002045
:10163C003C0000204800002038000020440000201E
:10164C0080B582B000AF78607B68042B1BD07B68C0
:10165C00042B21DC7B68022B03D07B68032B09D085
:10166C001AE001210F4800F05EFB02210D4800F04A
:10167C005AFB12E004210B4800F055FB08210948E5
:10168C0000F051FB09E01021064800F04CFB202132
:10169C00044800F048FB00E000BF00BF0837BD461F
:1016AC0080BD00BF000C0140FFF7F2FE0B480C4957
:1016BC000C4A002302E0D458C4500433C4188C42A2
:1016CC00F9D3094A094C002301E013600432A24209
:1016DC00FBD301F0F9FAFFF73FFD70470000002043
:1016EC0070000020702D00087000002044010020C4
:1016FC00FEE7000080B500AF084B1B68074A43F0BB
:10170C0010031360032000F023F90F2000F008F8F9
:10171C00FFF736FE0023184680BD00BF00200240B4
:10172C0080B582B000AF7860124B1A68124B1B78F0
:10173C0019464FF47A73B3FBF1F3B2FBF3F318468B
:10174C0000F03BF90346002B01D001230EE07B682F
:10175C000F2B0AD8002279684FF0FF3000F003F904
:10176C00064A7B681360002300E001231846083703
:10177C00BD4680BD640000206C0000206800002085
:10178C0080B400AF054B1B781A46054B1B681344FD
:10179C00034A136000BFBD4680BC70476C0000203C
:1017AC004001002080B400AF024B1B681846BD46B8
:1017BC0080BC70474001002080B485B000AF7860D9
:1017CC007B6803F00703FB600C4BDB68BB60BA68FB
:1017DC004FF6FF031340BB60FB681A02BB68134350
:1017EC0043F0BF6343F40033BB60044ABB68D3606F
:1017FC0000BF1437BD4680BC704700BF00ED00E051
:10180C0080B400AF044BDB681B0A03F007031846D7
:10181C00BD4680BC704700BF00ED00E080B483B0D3
:10182C0000AF0346FB7197F90730002B0BDBFB79FC
:10183C0003F01F02064997F907305B09012000FAF3
:10184C0002F241F8232000BF0C37BD4680BC704724
:10185C0000E100E080B483B000AF03463960FB7157
:10186C0097F90730002B0ADB3B68DAB20C4997F981
:10187C0007301201D2B20B4483F800230AE03B6814
:10188C00DAB20849FB7903F00F03043B1201D2B220
:10189C000B441A7600BF0C37BD4680BC704700BFA6
:1018AC0000E100E000ED00E080B489B000AFF8602A
:1018BC00B9607A60FB6803F00703FB61FB69C3F155
:1018CC000703042B28BF0423BB61FB690433062BDD
:1018DC0002D9FB69033B00E000237B614FF0FF3230
:1018EC00BB6902FA03F3DA43BB681A407B699A407E
:1018FC004FF0FF317B6901FA03F3D9437B680B404E
:10190C00134318462437BD4680BC704780B582B05F
:10191C0000AF78607B68013BB3F1807F01D301237A
:10192C000FE00A4A7B68013B53600F214FF0FF30F8
:10193C00FFF790FF054B00229A60044B07221A60B8
:10194C00002318460837BD4680BD00BF10E000E0FC
:10195C0080B582B000AF78607868FFF72DFF00BFCC
:10196C000837BD4680BD80B586B000AF0346B96070
:10197C007A60FB7300237B61FFF742FF78617A6822
:10198C00B9687869FFF790FF024697F90F30114656
:10199C001846FFF75FFF00BF1837BD4680BD80B506
:1019AC0082B000AF0346FB7197F907301846FFF77A
:1019BC0035FF00BF0837BD4680BD80B582B000AF93
:1019CC0078607868FFF7A2FF034618460837BD46D3
:1019DC0080BD000080B48BB000AF7860396000230C
:1019EC007B6200233B6248E101227B6A02FA03F32B
:1019FC00FB613B681B68FA691340BB61BA69FB6900
:101A0C009A4240F037813B685B68A34A93425ED0B0
:101A1C00A14A934275D8A14A934258D09F4A934207
:101A2C006FD89F4A934252D09D4A934269D89D4A9F
:101A3C0093424CD09B4A934263D89B4A934246D0E4
:101A4C00994A93425DD8122B2AD8122B59D801A24D
:101A5C0052F823F0DB1A0008B51A0008C71A000860
:101A6C00091B00080F1B00080F1B00080F1B0008A8
:101A7C000F1B00080F1B00080F1B00080F1B000892
:101A8C000F1B00080F1B00080F1B00080F1B000882
:101A9C000F1B00080F1B0008BD1A0008D11A000804
:101AAC00824A934213D02CE03B68DB683B6229E00E
:101ABC003B68DB6804333B6224E03B68DB6808333B
:101ACC003B621FE03B68DB680C333B621AE03B680F
:101ADC009B68002B02D104233B6213E03B689B689C
:101AEC00012B05D108233B627B68FA691A6109E076
:101AFC0008233B627B68FA695A6103E000233B626E
:101B0C0000E000BFBB69FF2B01D87B6801E07B685C
:101B1C0004337B61BB69FF2B02D87B6A9B0002E01C
:101B2C007B6A083B9B003B617B691A680F213B6910
:101B3C0001FA03F3DB431A40396A3B6901FA03F3F8
:101B4C001A437B691A603B685B6803F08053002B77
:101B5C0000F09080564B9B69554A43F0010393610A
:101B6C00534B9B6903F00103BB60BB68514A7B6A12
:101B7C009B08023352F82330FB607B6A03F00303AB
:101B8C009B000F2202FA03F3DB43FA681340FB605D
:101B9C007B68494A93420DD07B68484A934207D0F0
:101BAC007B68474A934201D1022304E0032302E0FD
:101BBC00012300E000237A6A02F0030292009340B2
:101BCC00FA681343FB603B497B6A9B080233FA6853
:101BDC0041F823203B685B6803F48013002B06D08C
:101BEC00384B9A683749BB6913438B6006E0354B19
:101BFC009A68BB69DB43334913408B603B685B6875
:101C0C0003F40013002B06D02E4BDA682D49BB6968
:101C1C001343CB6006E02B4BDA68BB69DB432949E5
:101C2C001340CB603B685B6803F40033002B06D099
:101C3C00244B5A682349BB6913434B6006E0214B84
:101C4C005A68BB69DB431F4913404B603B685B68B8
:101C5C0003F48033002B06D01A4B1A681949BB6960
:101C6C0013430B6006E0174B1A68BB69DB4315493D
:101C7C0013400B607B6A01337B623B681A687B6A9A
:101C8C0022FA03F3002B7FF4AFAE00BF00BF2C375A
:101C9C00BD4680BC704700BF000032100000311000
:101CAC000000221000002110000012100000111082
:101CBC00001002400000014000080140000C0140EF
:101CCC00001001400004014080B485B000AF786082
:101CDC000B467B807B689A687B881340002B02D074
:101CEC000123FB7301E00023FB73FB7B18461437C5
:101CFC00BD4680BC704780B483B000AF78600B46A3
:101D0C007B8013467B707B78002B03D07A887B68B2
:101D1C001A6103E07B881A047B681A6100BF0C37D8
:101D2C00BD4680BC704780B485B000AF78600B4670
:101D3C007B807B68DB68FB607A88FB6813401A0445
:101D4C00FB68D9437B880B401A437B681A6100BF40
:101D5C001437BD4680BC704780B586B000AF786044
:101D6C007B68002B01D101236CE27B681B6803F0BC
:101D7C000103002B00F08780924B5B6803F00C038F
:101D8C00042B0CD08F4B5B6803F00C03082B12D187
:101D9C008C4B5B6803F48033B3F5803F0BD1894BDC
:101DAC001B6803F40033002B6CD07B685B68002B42
:101DBC0068D1012346E27B685B68B3F5803F06D1AE
:101DCC00804B1B687F4A43F4803313602EE07B68A2
:101DDC005B68002B0CD17B4B1B687A4A23F4803355
:101DEC001360784B1B68774A23F4802313601DE043
:101DFC007B685B68B3F5A02F0CD1724B1B68714AE2
:101E0C0043F4802313606F4B1B686E4A43F480339A
:101E1C0013600BE06B4B1B686A4A23F4803313602E
:101E2C00684B1B68674A23F4802313607B685B68EC
:101E3C00002B13D0FFF7B6FC386108E0FFF7B2FCBB
:101E4C0002463B69D31A642B01D90323FAE15D4B9B
:101E5C001B6803F40033002BF0D014E0FFF7A2FC56
:101E6C00386108E0FFF79EFC02463B69D31A642BED
:101E7C0001D90323E6E1534B1B6803F40033002B19
:101E8C00F0D100E000BF7B681B6803F00203002B5D
:101E9C0063D04C4B5B6803F00C03002B0BD0494B0D
:101EAC005B6803F00C03082B1CD1464B5B6803F4F6
:101EBC008033002B16D1434B1B6803F00203002B1D
:101ECC0005D07B681B69012B01D00123BAE13D4B86
:101EDC001B6823F0F8027B685B69DB00394913430C
:101EEC000B603AE07B681B69002B20D0364B01223B
:101EFC001A60FFF757FC386108E0FFF753FC024605
:101F0C003B69D31A022B01D903239BE12D4B1B6890
:101F1C0003F00203002BF0D02A4B1B6823F0F802CD
:101F2C007B685B69DB00274913430B6015E0264B8C
:101F3C0000221A60FFF736FC386108E0FFF732FC2C
:101F4C0002463B69D31A022B01D903237AE11D4BBC
:101F5C001B6803F00203002BF0D17B681B6803F0B5
:101F6C000803002B3AD07B689B69002B19D0174BC8
:101F7C0001221A60FFF716FC386108E0FFF712FC2B
:101F8C0002463B69D31A022B01D903235AE10D4BAC
:101F9C005B6A03F00203002BF0D0012000F09AFAE8
:101FAC001CE00A4B00221A60FFF7FCFB38610FE0C3
:101FBC00FFF7F8FB02463B69D31A022B08D903231F
:101FCC0040E100BF00100240000042428004424247
:101FDC009E4B5B6A03F00203002BE9D17B681B6804
:101FEC0003F00403002B00F0A6800023FB75974B35
:101FFC00DB6903F08053002B0DD1944BDB69934AC2
:10200C0043F08053D361914BDB6903F08053BB6089
:10201C00BB680123FB758E4B1B6803F48073002B8C
:10202C0018D18B4B1B688A4A43F480731360FFF7FB
:10203C00B9FB386108E0FFF7B5FB02463B69D31AE0
:10204C00642B01D90323FDE0814B1B6803F48073DF
:10205C00002BF0D07B68DB68012B06D17B4B1B6A15
:10206C007A4A43F0010313622DE07B68DB68002B96
:10207C000CD1764B1B6A754A23F001031362734B28
:10208C001B6A724A23F0040313621CE07B68DB6852
:10209C00052B0CD16D4B1B6A6C4A43F00403136285
:1020AC006A4B1B6A694A43F0010313620BE0674BEE
:1020BC001B6A664A23F001031362644B1B6A634A72
:1020CC0023F0040313627B68DB68002B15D0FFF749
:1020DC0069FB38610AE0FFF765FB02463B69D31ADE
:1020EC0041F28832934201D90323ABE0574B1B6A70
:1020FC0003F00203002BEED014E0FFF753FB386122
:10210C000AE0FFF74FFB02463B69D31A41F28832D3
:10211C00934201D9032395E04C4B1B6A03F0020355
:10212C00002BEED1FB7D012B05D1484BDB69474AD7
:10213C0023F08053D3617B68DB69002B00F0818036
:10214C00424B5B6803F00C03082B61D07B68DB69A6
:10215C00022B46D13F4B00221A60FFF723FB38615C
:10216C0008E0FFF71FFB02463B69D31A022B01D98B
:10217C00032367E0354B1B6803F00073002BF0D191
:10218C007B681B6AB3F5803F08D1304B5B6823F446
:10219C0000327B689B682D4913434B602B4B5B686B
:1021AC0023F474127B68196A7B685B6A0B432749BA
:1021BC0013434B60274B01221A60FFF7F3FA386187
:1021CC0008E0FFF7EFFA02463B69D31A022B01D95C
:1021DC00032337E01D4B1B6803F00073002BF0D07A
:1021EC002FE01C4B00221A60FFF7DCFA386108E084
:1021FC00FFF7D8FA02463B69D31A022B01D9032305
:10220C0020E0124B1B6803F00073002BF0D118E098
:10221C007B68DB69012B01D1012313E00B4B5B685D
:10222C00FB60FB6803F480327B681B6A9A4206D120
:10223C00FB6803F470127B685B6A9A4201D001233D
:10224C0000E0002318461837BD4680BD0010024040
:10225C00007000406000424280B584B000AF7860EE
:10226C0039607B68002B01D10123D0E06A4B1B68DD
:10227C0003F007033A689A4210D9674B1B6823F0A6
:10228C00070265493B6813430B60634B1B6803F003
:10229C0007033A689A4201D00123B8E07B681B68B7
:1022AC0003F00203002B20D07B681B6803F00403AF
:1022BC00002B05D0594B5B68584A43F4E0635360DC
:1022CC007B681B6803F00803002B05D0534B5B683D
:1022DC00524A43F460535360504B5B6823F0F00256
:1022EC007B689B684D4913434B607B681B6803F00C
:1022FC000103002B40D07B685B68012B07D1474B57
:10230C001B6803F40033002B15D101237FE07B689D
:10231C005B68022B07D1414B1B6803F00073002B49
:10232C0009D1012373E03D4B1B6803F00203002B22
:10233C0001D101236BE0394B5B6823F003027B680E
:10234C005B68364913434B60FFF72CFAF8600AE0E0
:10235C00FFF728FA0246FB68D31A41F288329342FF
:10236C0001D9032353E02D4B5B6803F00C027B680F
:10237C005B689B009A42EBD1274B1B6803F0070369
:10238C003A689A4210D2244B1B6823F00702224968
:10239C003B6813430B60204B1B6803F007033A6840
:1023AC009A4201D0012332E07B681B6803F00403DE
:1023BC00002B08D0194B5B6823F4E0627B68DB6868
:1023CC00164913434B607B681B6803F00803002B12
:1023DC0009D0124B5B6823F460527B681B69DB00ED
:1023EC000E4913434B6000F021F802460B4B5B681F
:1023FC001B0903F00F030A49CB5C22FA03F3094AC9
:10240C001360094B1B681846FFF78AF9002318461E
:10241C001037BD4680BD00BF0020024000100240B6
:10242C00442D0008640000206800002080B487B0B0
:10243C0000AF0023FB600023BB6000237B61002303
:10244C007B6000233B611E4B5B68FB60FB6803F009
:10245C000C03042B02D0082B03D027E0194B3B6153
:10246C0027E0FB689B0C03F00F03174AD35C7B60DF
:10247C00FB6803F48033002B10D0114B5B685B0CB2
:10248C0003F00103114AD35CBB607B680D4A02FB6D
:10249C0003F2BB68B2FBF3F37B6104E07B680C4A8C
:1024AC0002FB03F37B617B693B6102E0054B3B6103
:1024BC0000BF3B6918461C37BD4680BC704700BF47
:1024CC000010024000127A00542D0008642D000800
:1024DC0000093D0080B485B000AF78600A4B1B68E2
:1024EC000A4AA2FB03235B0A7A6802FB03F3FB6034
:1024FC0000BFFB685A1EFA60002BF9D100BF00BF69
:10250C001437BD4680BC704764000020D34D621068
:10251C0080B582B000AF78607B68002B01D10123BD
:10252C0041E07B6893F83D30DBB2002B06D17B6831
:10253C00002283F83C207868FEF754FF7B68022267
:10254C0083F83D207B681A687B6804331946104673
:10255C0000F056FA7B68012283F846207B68012242
:10256C0083F83E207B68012283F83F207B680122A0
:10257C0083F840207B68012283F841207B6801228C
:10258C0083F842207B68012283F843207B68012278
:10259C0083F844207B68012283F845207B68012264
:1025AC0083F83D20002318460837BD4680BD000047
:1025BC0080B485B000AF78607B6893F83D30DBB2B7
:1025CC00012B01D0012335E07B68022283F83D20EA
:1025DC007B681B68DA687B681B6842F00102DA6072
:1025EC007B681B68164A934209D07B681B68B3F161
:1025FC00804F04D07B681B68124A934211D17B68D0
:10260C001B689B6803F00703FB60FB68062B10D06C
:10261C007B681B681A687B681B6842F001021A60B1
:10262C0007E07B681B681A687B681B6842F0010234
:10263C001A60002318461437BD4680BC704700BF93
:10264C00002C01400004004080B584B000AF7860DD
:10265C007B681B68DB68FB607B681B681B69BB6065
:10266C00BB6803F00203002B20D0FB6803F00203CD
:10267C00002B1BD07B681B686FF002021A617B6811
:10268C0001221A777B681B689B6903F00303002BFC
:10269C0003D0786800F098F905E0786800F08BF9C1
:1026AC00786800F09AF97B6800221A77BB6803F00F
:1026BC000403002B20D0FB6803F00403002B1BD079
:1026CC007B681B686FF004021A617B6802221A7720
:1026DC007B681B689B6903F44073002B03D07868FC
:1026EC0000F072F905E0786800F065F9786800F0A0
:1026FC0074F97B6800221A77BB6803F00803002B7F
:10270C0020D0FB6803F00803002B1BD07B681B68F0
:10271C006FF008021A617B6804221A777B681B68C9
:10272C00DB6903F00303002B03D0786800F04CF94D
:10273C0005E0786800F03FF9786800F04EF97B68A6
:10274C0000221A77BB6803F01003002B20D0FB6823
:10275C0003F01003002B1BD07B681B686FF010027A
:10276C001A617B6808221A777B681B68DB6903F4A3
:10277C004073002B03D0786800F026F905E07868E8
:10278C0000F019F9786800F028F97B6800221A77B4
:10279C00BB6803F00103002B0CD0FB6803F00103B2
:1027AC00002B07D07B681B686FF001021A617868F8
:1027BC00FEF7D4FDBB6803F08003002B0CD0FB6844
:1027CC0003F08003002B07D07B681B686FF080023E
:1027DC001A61786800F06FFABB6803F04003002BB5
:1027EC000CD0FB6803F04003002B07D07B681B6800
:1027FC006FF040021A61786800F0F8F8BB6803F0DB
:10280C002003002B0CD0FB6803F02003002B07D017
:10281C007B681B686FF020021A61786800F042FA3E
:10282C0000BF1037BD4680BD80B584B000AF786066
:10283C0039600023FB737B6893F83C30012B01D18A
:10284C000223B4E07B68012283F83C207B680222DF
:10285C0083F83D207B681B689B68BB60BB6823F0DA
:10286C007703BB60BB6823F47F43BB607B681B684A
:10287C00BA689A603B681B68B3F5005F3ED0B3F54D
:10288C00005F00F28780B3F5805F00F08680B3F5BF
:10289C00805F7FD8702B1AD0702B7BD8602B50D0D8
:1028AC00602B77D8502B3CD0502B73D8402B58D062
:1028BC00402B6FD8302B64D0302B6BD8202B60D0B2
:1028CC00202B67D8002B5CD0102B5AD062E07B6891
:1028DC0018683B6899683B685A683B68DB6800F08D
:1028EC006AF97B681B689B68BB60BB6843F0770325
:1028FC00BB607B681B68BA689A604FE07B6818689D
:10290C003B6899683B685A683B68DB6800F053F990
:10291C007B681B689A687B681B6842F480429A60EB
:10292C003CE07B6818683B6859683B68DB681A4672
:10293C0000F0CAF87B681B685021184600F021F99A
:10294C002CE07B6818683B6859683B68DB681A4662
:10295C0000F0E8F87B681B686021184600F011F95C
:10296C001CE07B6818683B6859683B68DB681A4652
:10297C0000F0AAF87B681B684021184600F001F9AA
:10298C000CE07B681A683B681B681946104600F01F
:10299C00F8F803E00123FB7300E000BF7B68012221
:1029AC0083F83D207B68002283F83C20FB7B184693
:1029BC001037BD4680BD80B483B000AF786000BFD7
:1029CC000C37BD4680BC704780B483B000AF7860D4
:1029DC0000BF0C37BD4680BC704780B483B000AFDD
:1029EC00786000BF0C37BD4680BC704780B483B0A4
:1029FC0000AF786000BF0C37BD4680BC704700004C
:102A0C0080B485B000AF786039607B681B68FB6070
:102A1C007B682B4A934207D07B68B3F1804F03D07D
:102A2C007B68284A934208D1FB6823F07003FB6053
:102A3C003B685B68FA681343FB607B68204A9342EF
:102A4C0007D07B68B3F1804F03D07B681D4A93425B
:102A5C0008D1FB6823F44073FB603B68DB68FA68C1
:102A6C001343FB60FB6823F080023B685B691343F4
:102A7C00FB607B68FA681A603B689A687B68DA626C
:102A8C003B681A687B689A627B680D4A934203D153
:102A9C003B681A697B681A637B6801225A617B6800
:102AAC001B6903F00103002B05D07B681B6923F025
:102ABC0001027B681A6100BF1437BD4680BC7047A9
:102ACC00002C01400004004080B487B000AFF860D7
:102ADC00B9607A60FB681B6A7B61FB681B6A23F038
:102AEC000102FB681A62FB689B693B613B6923F03E
:102AFC00F0033B617B681B013A6913433B617B69C3
:102B0C0023F00A037B617A69BB6813437B61FB6822
:102B1C003A699A61FB687A691A6200BF1C37BD4634
:102B2C0080BC704780B487B000AFF860B9607A6041
:102B3C00FB681B6A7B61FB681B6A23F01002FB6855
:102B4C001A62FB689B693B613B6923F470433B61F0
:102B5C007B681B033A6913433B617B6923F0A00339
:102B6C007B61BB681B017A6913437B61FB683A6923
:102B7C009A61FB687A691A6200BF1C37BD4680BC3B
:102B8C00704780B485B000AF786039607B689B6813
:102B9C00FB60FB6823F07003FB603A68FB6813432F
:102BAC0043F00703FB607B68FA689A6000BF143738
:102BBC00BD4680BC704780B487B000AFF860B96088
:102BCC007A603B60FB689B687B617B6923F47F4385
:102BDC007B613B681A027B681A43BB6813437A69B2
:102BEC0013437B61FB687A699A6000BF1C37BD4652
:102BFC0080BC704780B485B000AF786039607B686A
:102C0C0093F83C30012B01D1022341E07B68012277
:102C1C0083F83C207B68022283F83D207B681B688C
:102C2C005B68FB607B681B689B68BB60FB6823F080
:102C3C007003FB603B681B68FA681343FB607B689E
:102C4C001B68FA685A607B681B68144A934209D067
:102C5C007B681B68B3F1804F04D07B681B68104AFB
:102C6C0093420CD1BB6823F08003BB603B685B686C
:102C7C00BA681343BB607B681B68BA689A607B6850
:102C8C00012283F83D207B68002283F83C2000233E
:102C9C0018461437BD4680BC704700BF002C01405D
:102CAC000004004080B483B000AF786000BF0C37E4
:102CBC00BD4680BC704780B483B000AF786000BF65
:102CCC000C37BD4680BC704770B500260C4D0D4CC2
:102CDC00641BA410A64209D100F022F800260A4D6C
:102CEC000A4C641BA410A64205D170BD55F8043BD8
:102CFC0098470136EEE755F8043B98470136F2E762
:102D0C00682D0008682D0008682D00086C2D00083F
:102D1C0003460244934200D1704703F8011BF9E7C4
:102D2C00F8B500BFF8BC08BC9E467047F8B500BFAC
:082D3C00F8BC08BC9E4670477C
:102D44000000000000000000010203040607080957
:102D540002030405060708090A0B0C0D0E0F1010D8
:042D64000102000068
:042D6800310100082D
:042D6C000D0100084D
:102D70000100000000000000000000000100000051
:102D80000000000000000000010000000000000042
:102D90000000000001000000000000000000000032
:102DA000F401000005000000020000000300000024
:102DB0000500000002000000030000000500000004
:102DC00002000000030000000100000001000000FC
:102DD0000100000000127A00100000000100000055
:04000005080016B524
:00000001FF
