:020000040800F2
:100000000028002081120008451100084B1100084B
:1000100051110008571100085D1100080000000090
:100020000000000000000000000000006311000854
:100030006F110008000000007B1100088711000804
:10004000C9120008C9120008C9120008C912000824
:10005000C9120008C9120008C9120008C912000814
:10006000C9120008C9120008C9120008C912000804
:10007000C9120008C9120008C9120008C9120008F4
:10008000C9120008C9120008C9120008C9120008E4
:10009000C9120008C9120008C9120008C9120008D4
:1000A000C9120008C9120008C9120008C9120008C4
:1000B00095110008C912000800000000C9120008CC
:1000C000C91200080000000000000000C91200086A
:1000D00000000000C9120008C9120008000000005A
:1000E000C9120008C9120008C91200080000000067
:1000F0000000000000000000000000000000000000
:0C01000000000000000000005FF808F1A3
:10010C0010B5054C237833B9044B13B10448AFF345
:10011C0000800123237010BD280000200000000087
:10012C00F828000808B5034B1BB103490348AFF38B
:10013C00008008BD000000002C000020F8280008FA
:10014C0080B588B002AF974B186880230193402389
:10015C00009320231022944900F0A2FB914B1B68C2
:10016C00013B032B00F2B68101A252F823F000BF31
:10017C008D010008AD010008AF020008E103000882
:10018C008A4B1B68002B00F0A78100F093FC012127
:10019C00854801F0AEFB4FF47A7001F005F89BE155
:1001AC00834B1B68834A82FB03129210DB17D31A12
:1001BC00814A13607E4B19687E4B83FB01239A1096
:1001CC00CB17D21A13469B0013445B00CA1A7B4B05
:1001DC001A60794B18684FF4006301934FF48063F5
:1001EC0000934FF400734FF48072754900F058FB84
:1001FC00724B18684FF4004301934FF48043009303
:10020C004FF400534FF480526D4900F049FB6D4B95
:10021C001B68684A82FB03129210DB17D31A7B60AF
:10022C00684B1A68634B83FB02139910D317C91AD6
:10023C000B469B000B445B00D31A3B6008230193D5
:10024C0004230093022301225D49786800F028FB07
:10025C0080230193402300932023102258493868AF
:10026C0000F01EFB584B1B68002B0DD04FF4FA709E
:10027C0000F0B6FF4FF480714B4801F03AFB4FF49D
:10028C000061494801F035FB504B1B68012B40F0D5
:10029C0025814E4B00221A60454B1B68494A13605E
:1002AC001CE1434B1B68434A82FB03129210DB1781
:1002BC00D31A414A13603E4B19683E4B83FB012312
:1002CC009A10CB17D21A13469B0013445B00CA1A20
:1002DC003A4B1A60384B18684FF4006301934FF493
:1002EC00806300934FF400734FF48072344900F034
:1002FC00D7FA324B18684FF4004301934FF4804304
:10030C0000934FF400534FF480522D4900F0C8FA7B
:10031C002F4B1B68274A82FB03129210DB17D31A50
:10032C00FB602B4B1A68234B83FB02139910D317DA
:10033C00C91A0B469B000B445B00D31ABB60082305
:10034C00019304230093022301221D49F86800F055
:10035C00A7FA8023019340230093202310221849ED
:10036C00B86800F09DFA184B1B68002B0DD04FF4A9
:10037C00FA7000F035FF4FF400710B4801F0B9FA38
:10038C004FF48051084801F0B4FA104B1B68002B55
:10039C0000F0A6800D4B00221A60054B1B680C4A1E
:1003AC0013609DE050000020000C0140580000201C
:1003BC004C00002067666666700000207400002008
:1003CC0000080140100000206000002048000020C0
:1003DC0014000020464B1B68464A82FB0312921005
:1003EC00DB17D31A444A1360414B1968414B83FB0A
:1003FC0001239A10CB17D21A13469B0013445B00AF
:10040C00CA1A3E4B1A603C4B18684FF400630193B8
:10041C004FF4806300934FF400734FF480723849AB
:10042C0000F03EFA354B18684FF4004301934FF43B
:10043C00804300934FF400534FF48052304900F046
:10044C002FFA304B1B682B4A82FB03129210DB17DE
:10045C00D31A7B612B4B1A68264B83FB0213991022
:10046C00D317C91A0B469B000B445B00D31A3B6194
:10047C000823019304230093022301222049786965
:10048C0000F00EFA802301934023009320231022C6
:10049C001B49386900F004FA1B4B1B68002B0DD06C
:1004AC004FF4FA7000F09CFE4FF48061174801F095
:1004BC0020FA4FF40051154801F01BFA144B1B683D
:1004CC00002B0FD0124B00221A60094B1B680D4AEF
:1004DC00136007E000BF06E000BF04E000BF02E0CD
:1004EC0000BF00E000BF00BF1837BD4680BD00BF95
:1004FC004C000020676666667000002074000020C7
:10050C00000801401800002060000020000C014091
:10051C004800002080B500AF0D4B1A680D4B1B68CE
:10052C001A440D4B1B689A420ED10C4B03221A60D5
:10053C00084B1B680A4A13600A4B05221A60064BCB
:10054C001B68094A136001E000F010F800BF80BD81
:10055C0018000020140000201000002000000020D3
:10056C0004000020080000200C00002080B582B0A0
:10057C0000AF254B254A1A60234B244A5A60224B64
:10058C00224A9A60224B02221A80214B04225A8062
:10059C001F4B08229A8000237B6016E01D4A7B6863
:1005AC00012142F823101C4A7B68134401221A7063
:1005BC001A4A7B68134401221A70194A7B6800217D
:1005CC0042F823107B6801337B607B68022BE5DDEE
:1005DC00144B01221A60144B00221A60134B052293
:1005EC001A60134B03221A60124B02221A60FFF797
:1005FC0091FF114B00221A60104B00221A6000BFB1
:10060C000837BD4680BD00BF64000020000C0140CF
:10061C008000002094000020780000207C00002046
:10062C0088000020500000204C000020100000200A
:10063C001400002018000020480000204400002076
:10064C0080B500AF00224FF6FF71054801F039F973
:10065C00002243F60171034801F033F900BF80BD5D
:10066C0000080140000C014080B582B000AF0023AF
:10067C007B60F6E07F4A7B68134419787E4A7B687E
:10068C0013440A461A707D4A7B6852F823207C4931
:10069C007B6831F813301946104601F0FBF803461D
:1006AC001946744A7B6813440A461A70714A7B686F
:1006BC0013441A7870497B680B441B789A4240F0BB
:1006CC00CA806C4A7B6813441A787B68013B6A4980
:1006DC00CB5C9A4240F0BF807B68013B664AD25C9F
:1006EC007B68023B6449CB5C9A4207D07B685A1EFC
:1006FC007B68023B6049895C5F4AD154614A7B68E4
:10070C0052F82330022B6ED0022B00F3A680002B64
:10071C000CD0012B40F0A180564A7B6813441B7807
:10072C001946584A7B6842F8231097E0514A7B6877
:10073C0013441B78002B4BD17B68002B0FD1524BF1
:10074C001B68002B0BD1514B01221A60504B00221D
:10075C001A60504B1B6801334E4A13601DE07B68D6
:10076C00012B10D1484B5B68002B0CD1484B1B68FC
:10077C000133474A1360464B1B68632B0DDD444B1A
:10078C0000221A6009E07B68022B06D13E4B9B6865
:10079C00002B02D1404B01221A603B4A7B6852F875
:1007AC002330642B09DC384A7B6852F823305A1CFE
:1007BC0035497B6841F8232050E0334A7B6800219F
:1007CC0042F823102F4A7B68022142F8231045E09F
:1007DC002D4A7B68002142F823102A4A7B680121AC
:1007EC0042F823103AE0234A7B6813441B78002B11
:1007FC0026D1254A7B6852F82310284B83FB012312
:10080C009A10CB17D21A13469B0013445B00CA1ADA
:10081C00002A0BD11E4B1B6801331D4A13601C4B65
:10082C001B68632B02DD1A4B00221A60164A7B6888
:10083C0052F823305A1C14497B6841F823200DE0F0
:10084C00114A7B68002142F823100E4A7B68012173
:10085C0042F8231002E000BF00E000BF7B680133C8
:10086C007B607B68022B7FF705AF00BF00BF0837AA
:10087C00BD4680BD780000207C0000206400002074
:10088C0080000020940000208800002044000020FC
:10089C004C0000205000002048000020676666666F
:1008AC0080B584B000AFF860B96011461A460B46AB
:1008BC00FB801346BB80FB6801330A2B00F2E580FA
:1008CC0001A252F823F000BF010900082109000819
:1008DC0041090008670900088D090008B3090008E0
:1008EC00D9090008FF090008250A00084B0A00086E
:1008FC00710A0008BA8B3B8B13439AB2BB88134323
:10090C009AB2FB8813439BB201221946B86800F0D7
:10091C00D8FFCAE0BA8B3B8B13439AB2BB88134304
:10092C009AB2FB8813439BB200221946B86800F0B8
:10093C00C8FFBAE0BA8B3B8B13439AB2BB88134304
:10094C009BB200221946B86800F0BBFFFB8801225D
:10095C001946B86800F0B5FFA7E0BA8B3B8B134380
:10096C009AB2FB8813439BB200221946B86800F078
:10097C00A8FFBB8801221946B86800F0A2FF94E0DA
:10098C00BA8B3B8B13439BB200221946B86800F01C
:10099C0098FFBA88FB8813439BB201221946B868AA
:1009AC0000F08FFF81E0BA8BBB8813439AB2FB88AF
:1009BC0013439BB200221946B86800F082FF3B8BB0
:1009CC0001221946B86800F07CFF6EE0BA8BBB8838
:1009DC0013439BB200221946B86800F072FF3A8BA1
:1009EC00FB8813439BB201221946B86800F069FFDB
:1009FC005BE0BA8BFB8813439BB200221946B868A4
:100A0C0000F05FFFBA883B8B13439BB2012219465F
:100A1C00B86800F056FF48E0BB8B00221946B86856
:100A2C0000F04FFF3A8BBB8813439AB2FB881343F9
:100A3C009BB201221946B86800F043FF35E03A8BAF
:100A4C00BB8813439AB2FB8813439BB2002219460E
:100A5C00B86800F036FFBB8B01221946B86800F06D
:100A6C0030FF22E03A8BBB8813439BB2002219461D
:100A7C00B86800F026FFBA8BFB8813439BB20122A7
:100A8C001946B86800F01DFF0FE0BA8B3B8B13437F
:100A9C009AB2BB8813439AB2FB8813439BB20122D0
:100AAC001946B86800F00DFF00BF00BF1037BD46F7
:100ABC0080BD00BF80B586B002AFA24B1B68013B66
:100ACC00A04A13609F4B1B689F4A82FB0312921033
:100ADC00DB17D31AFB609B4B1A689B4B83FB0213EF
:100AEC009910D317C91A0B469B000B445B00D31A01
:100AFC00BB60964B1B68052B07D0052B00F3898038
:100B0C00022B5AD0032B2CD083E00823019304230F
:100B1C000093022301228E49F868FFF7C1FE80235F
:100B2C00019340230093202310228949B868FFF7D2
:100B3C00B7FE01224FF48071864800F0C2FE0022FD
:100B4C004FF4C061834800F0BCFE7E4B1B68002B49
:100B5C0061DC814B1B687B4A13607C4B03221A605F
:100B6C0059E00823019304230093022301227849BE
:100B7C00F868FFF795FE8023019340230093202310
:100B8C0010227349B868FFF78BFE01224FF40071F5
:100B9C00704800F096FE00224FF4A0616D4800F002
:100BAC0090FE684B1B68002B37DC6C4B1B68654A4E
:100BBC001360664B02221A602FE008230193042372
:100BCC000093022301226249F868FFF769FE802333
:100BDC00019340230093202310225D49B868FFF74E
:100BEC005FFE01224FF480615A4800F06AFE002239
:100BFC004FF44071574800F064FE524B1B68002BB9
:100C0C000DDC574B1B684F4A1360504B05221A6082
:100C1C0005E000BF04E000BF02E000BF00E000BF41
:100C2C00504B1B68013B4F4A13604E4B1B68464AA6
:100C3C0082FB03129210DB17D31A7B60494B1A68A4
:100C4C00414B83FB02139910D317C91A0B469B0017
:100C5C000B445B00D31A3B60434B1B68052B08D03D
:100C6C00052B00F3B780022B00F08080032B35D0CE
:100C7C00B0E04FF4006301934FF4806300934FF4A2
:100C8C0000734FF4807232497868FFF709FE4FF415
:100C9C00004301934FF4804300934FF400534FF4FF
:100CAC0080522B493868FFF7FBFD01224FF400619D
:100CBC00284800F006FE00224FF44051254800F071
:100CCC0000FE284B1B68002B00F38680224B1B6810
:100CDC00244A1360244B03221A607DE04FF4006316
:100CEC0001934FF4806300934FF400734FF48072C0
:100CFC0017497868FFF7D4FD4FF4004301934FF484
:100D0C00804300934FF400534FF4805210493868DD
:100D1C00FFF7C6FD01224FF480510E4800F0D1FDC3
:100D2C0000224FF420510B4800F0CBFD0D4B1B68FB
:100D3C00002B53DC094B1B680A4A13600A4B022236
:100D4C001A604BE004000020676666660000002015
:100D5C0000080140000C0140140000201800002085
:100D6C00100000200C000020080000204FF400634D
:100D7C0001934FF4806300934FF400734FF480722F
:100D8C001A497868FFF78CFD4FF4004301934FF438
:100D9C00804300934FF400534FF48052134938684A
:100DAC00FFF77EFD01224FF40051114800F089FD40
:100DBC0000224FF4C0510E4800F083FD0D4B1B6810
:100DCC00002B0DDC0C4B1B680A4A13600B4B0522E5
:100DDC001A6005E000BF04E000BF02E000BF00E0C5
:100DEC0000BF00BF1037BD4680BD00BF00080140EA
:100DFC00000C01400C000020100000200800002016
:100E0C0080B500AF00F05CFA00F044F800F07EF81A
:100E1C0000F0C8F81A4801F0B1F9FFF7A7FB4FF43E
:100E2C007A7000F0C1F94FF47A7000F0D9F9154BD3
:100E3C001B68012B06D001224FF48041124800F0B0
:100E4C0040FD05E000224FF480410F4800F039FDD1
:100E5C000C4B1B68042B04DD0A4B01221A60FFF7B4
:100E6C0059FB0A4B1B68002B07D0FFF7E9FB074B1C
:100E7C0000221A60064B00221A60FFF761F9D6E7D0
:100E8C00A000002050000020000C01404400002075
:100E9C004C00002080B590B000AF07F11803282259
:100EAC000021184601F01AFD3B1D00221A605A6001
:100EBC009A60DA601A610223BB610123BB621023C2
:100ECC00FB6200237B6307F11803184600F02AFD30
:100EDC000346002B01D000F0D3F80F237B600023D6
:100EEC00BB600023FB6000233B6100237B613B1D47
:100EFC000021184600F096FF0346002B01D000F0AD
:100F0C00BFF800BF4037BD4680BD000080B586B03D
:100F1C0000AF07F1080300221A605A609A60DA6089
:100F2C003B4600221A605A601D4B4FF080421A60FB
:100F3C001B4B41F63F725A60194B00229A60184BBA
:100F4C000922DA60164B00221A61154B00229A61B5
:100F5C00134801F0C3F80346002B01D000F090F8C1
:100F6C004FF48053BB6007F1080319460C4801F09D
:100F7C0041FA0346002B01D000F082F800233B60BD
:100F8C0000237B603B461946054801F019FC0346DB
:100F9C00002B01D000F074F800BF1837BD4680BD9F
:100FAC00A000002080B586B000AF07F10803002236
:100FBC001A605A609A60DA60284B9B69274A43F0A2
:100FCC0004039361254B9B6903F004037B607B68EE
:100FDC00224B9B69214A43F0080393611F4B9B6989
:100FEC0003F008033B603B6800224FF6FF711C487E
:100FFC0000F067FC002247F6F1711A4800F061FC22
:10100C004FF6FF73BB600123FB6000233B6102239F
:10101C007B6107F108031946114800F0C1FA47F645
:10102C00F173BB600123FB6000233B6102237B61F6
:10103C0007F1080319460B4800F0B2FA0E23BB6007
:10104C000023FB6000233B6107F1080319460548A8
:10105C0000F0A6FA00BF1837BD4680BD0010024054
:10106C0000080140000C014080B582B000AF7860F0
:10107C00FFF7FAFA00F0D0F800BF0837BD4680BD84
:10108C0080B400AF72B600BFFEE7000080B485B03C
:10109C0000AF154B9B69144A43F001039361124B4B
:1010AC009B6903F00103BB60BB680F4BDB690E4A05
:1010BC0043F08053D3610C4BDB6903F080537B60AE
:1010CC007B680A4B5B68FB60FB6823F0E063FB60AA
:1010DC00FB6843F08063FB60044AFB68536000BF0D
:1010EC001437BD4680BC7047001002400000014020
:1010FC0080B584B000AF78607B681B68B3F1804F1B
:10110C0013D10C4BDB690B4A43F00103D361094B40
:10111C00DB6903F00103FB60FB68002200211C204B
:10112C0000F007FA1C2000F020FA00BF1037BD4673
:10113C0080BD00BF0010024080B400AFFEE780B459
:10114C0000AFFEE780B400AFFEE780B400AFFEE76F
:10115C0080B400AFFEE780B400AF00BFBD4680BCDA
:10116C00704780B400AF00BFBD4680BC704780B4F0
:10117C0000AF00BFBD4680BC704780B500AF00F02B
:10118C00E5F800BF80BD000080B500AF024801F05B
:10119C0041F800BF80BD00BFA000002080B400AFAC
:1011AC0000BFBD4680BC704780B483B000AF786090
:1011BC007B68084A82FB03129210DB17D31A064A8B
:1011CC001360064B00221A6000BF0C37BD4680BC72
:1011DC00704700BF67666666540000205800002008
:1011EC0080B483B000AF78607B68084A82FB03123E
:1011FC009210DB17D31A064A1360064B00221A60B2
:10120C0000BF0C37BD4680BC704700BF6766666682
:10121C005C0000206000002080B400AF114B1B6804
:10122C00002B0BDD0F4B1B68013B0E4A13600D4B63
:10123C001B68002B02D10C4B01221A600B4B1B6854
:10124C00002B0BDD094B1B68013B084A1360074B55
:10125C001B68002B02D1064B01221A6000BFBD4651
:10126C0080BC704754000020580000205C00002017
:10127C0060000020FFF792FF0B480C490C4A00233A
:10128C0002E0D458C4500433C4188C42F9D3094A30
:10129C00094C002301E013600432A242FBD301F09D
:1012AC00F9FAFFF7ADFD7047000000202800002080
:1012BC003C29000828000020EC000020FEE700007C
:1012CC0080B500AF084B1B68074A43F0100313604E
:1012DC00032000F023F90F2000F008F8FFF7D6FEEA
:1012EC000023184680BD00BF0020024080B582B0AC
:1012FC0000AF7860124B1A68124B1B7819464FF4EA
:10130C007A73B3FBF1F3B2FBF3F3184600F03BF93D
:10131C000346002B01D001230EE07B680F2B0AD86B
:10132C00002279684FF0FF3000F003F9064A7B6821
:10133C001360002300E0012318460837BD4680BD2A
:10134C001C000020240000202000002080B400AFEE
:10135C00054B1B781A46054B1B681344034A136054
:10136C0000BFBD4680BC704724000020E800002070
:10137C0080B400AF024B1B681846BD4680BC70475A
:10138C00E800002080B485B000AF78607B6803F083
:10139C000703FB600C4BDB68BB60BA684FF6FF03BE
:1013AC001340BB60FB681A02BB68134343F0BF6376
:1013BC0043F40033BB60044ABB68D36000BF1437EE
:1013CC00BD4680BC704700BF00ED00E080B400AFAC
:1013DC00044BDB681B0A03F007031846BD4680BCB0
:1013EC00704700BF00ED00E080B483B000AF03464F
:1013FC00FB7197F90730002B0BDBFB7903F01F0215
:10140C00064997F907305B09012000FA02F241F80E
:10141C00232000BF0C37BD4680BC704700E100E0C4
:10142C0080B483B000AF03463960FB7197F9073085
:10143C00002B0ADB3B68DAB20C4997F90730120132
:10144C00D2B20B4483F800230AE03B68DAB20849B5
:10145C00FB7903F00F03043B1201D2B20B441A7652
:10146C0000BF0C37BD4680BC704700BF00E100E0F8
:10147C0000ED00E080B489B000AFF860B9607A602C
:10148C00FB6803F00703FB61FB69C3F10703042B43
:10149C0028BF0423BB61FB690433062B02D9FB690B
:1014AC00033B00E000237B614FF0FF32BB6902FA83
:1014BC0003F3DA43BB681A407B699A404FF0FF3163
:1014CC007B6901FA03F3D9437B680B40134318463D
:1014DC002437BD4680BC704780B582B000AF7860C1
:1014EC007B68013BB3F1807F01D301230FE00A4AF3
:1014FC007B68013B53600F214FF0FF30FFF790FFEB
:10150C00054B00229A60044B07221A6000231846F0
:10151C000837BD4680BD00BF10E000E080B582B04A
:10152C0000AF78607868FFF72DFF00BF0837BD4625
:10153C0080BD80B586B000AF0346B9607A60FB739E
:10154C0000237B61FFF742FF78617A68B96878699C
:10155C00FFF790FF024697F90F3011461846FFF738
:10156C005FFF00BF1837BD4680BD80B582B000AFAD
:10157C000346FB7197F907301846FFF735FF00BF9C
:10158C000837BD4680BD80B582B000AF7860786802
:10159C00FFF7A2FF034618460837BD4680BD000082
:1015AC0080B48BB000AF7860396000237B6200237D
:1015BC003B6248E101227B6A02FA03F3FB613B6860
:1015CC001B68FA691340BB61BA69FB699A4240F027
:1015DC0037813B685B68A34A93425ED0A14A934231
:1015EC0075D8A14A934258D09F4A93426FD89F4ACC
:1015FC00934252D09D4A934269D89D4A93424CD013
:10160C009B4A934263D89B4A934246D0994A934251
:10161C005DD8122B2AD8122B59D801A252F823F0DC
:10162C00A71600088116000893160008D5160008A6
:10163C00DB160008DB160008DB160008DB160008BA
:10164C00DB160008DB160008DB160008DB160008AA
:10165C00DB160008DB160008DB160008DB1600089A
:10166C00DB160008891600089D160008824A934272
:10167C0013D02CE03B68DB683B6229E03B68DB68FD
:10168C0004333B6224E03B68DB6808333B621FE0B9
:10169C003B68DB680C333B621AE03B689B68002BB1
:1016AC0002D104233B6213E03B689B68012B05D1FC
:1016BC0008233B627B68FA691A6109E008233B62E4
:1016CC007B68FA695A6103E000233B6200E000BFCB
:1016DC00BB69FF2B01D87B6801E07B6804337B611D
:1016EC00BB69FF2B02D87B6A9B0002E07B6A083B3C
:1016FC009B003B617B691A680F213B6901FA03F37C
:10170C00DB431A40396A3B6901FA03F31A437B69DC
:10171C001A603B685B6803F08053002B00F09080EC
:10172C00564B9B69554A43F001039361534B9B699C
:10173C0003F00103BB60BB68514A7B6A9B08023310
:10174C0052F82330FB607B6A03F003039B000F22EB
:10175C0002FA03F3DB43FA681340FB607B68494AE7
:10176C0093420DD07B68484A934207D07B68474A26
:10177C00934201D1022304E0032302E0012300E0A1
:10178C0000237A6A02F0030292009340FA68134332
:10179C00FB603B497B6A9B080233FA6841F82320C3
:1017AC003B685B6803F48013002B06D0384B9A68B7
:1017BC003749BB6913438B6006E0354B9A68BB69AC
:1017CC00DB43334913408B603B685B6803F40013C5
:1017DC00002B06D02E4BDA682D49BB691343CB6026
:1017EC0006E02B4BDA68BB69DB4329491340CB601D
:1017FC003B685B6803F40033002B06D0244B5A681B
:10180C002349BB6913434B6006E0214B5A68BB6903
:10181C00DB431F4913404B603B685B6803F4803328
:10182C00002B06D01A4B1A681949BB6913430B607D
:10183C0006E0174B1A68BB69DB43154913400B6074
:10184C007B6A01337B623B681A687B6A22FA03F37A
:10185C00002B7FF4AFAE00BF00BF2C37BD4680BC61
:10186C00704700BF00003210000031100000221041
:10187C000000211000001210000011100010024096
:10188C000000014000080140000C01400010014024
:10189C000004014080B485B000AF78600B467B80BB
:1018AC007B689A687B881340002B02D00123FB7362
:1018BC0001E00023FB73FB7B18461437BD4680BC4C
:1018CC00704780B483B000AF78600B467B801346C2
:1018DC007B707B78002B03D07A887B681A6103E0DD
:1018EC007B881A047B681A6100BF0C37BD4680BC2C
:1018FC00704780B485B000AF78600B467B807B6806
:10190C00DB68FB607A88FB6813401A04FB68D943D8
:10191C007B880B401A437B681A6100BF1437BD46A5
:10192C0080BC704780B586B000AF78607B68002BB8
:10193C0001D101236CE27B681B6803F00103002BCF
:10194C0000F08780924B5B6803F00C03042B0CD0E7
:10195C008F4B5B6803F00C03082B12D18C4B5B682C
:10196C0003F48033B3F5803F0BD1894B1B6803F430
:10197C000033002B6CD07B685B68002B68D1012393
:10198C0046E27B685B68B3F5803F06D1804B1B68F1
:10199C007F4A43F4803313602EE07B685B68002B36
:1019AC000CD17B4B1B687A4A23F480331360784B41
:1019BC001B68774A23F4802313601DE07B685B6807
:1019CC00B3F5A02F0CD1724B1B68714A43F48023E2
:1019DC0013606F4B1B686E4A43F4803313600BE04B
:1019EC006B4B1B686A4A23F480331360684B1B688B
:1019FC00674A23F4802313607B685B68002B13D049
:101A0C00FFF7B6FC386108E0FFF7B2FC02463B6911
:101A1C00D31A642B01D90323FAE15D4B1B6803F441
:101A2C000033002BF0D014E0FFF7A2FC386108E083
:101A3C00FFF79EFC02463B69D31A642B01D90323A2
:101A4C00E6E1534B1B6803F40033002BF0D100E0AC
:101A5C0000BF7B681B6803F00203002B63D04C4B68
:101A6C005B6803F00C03002B0BD0494B5B6803F055
:101A7C000C03082B1CD1464B5B6803F48033002B02
:101A8C0016D1434B1B6803F00203002B05D07B6877
:101A9C001B69012B01D00123BAE13D4B1B6823F0DC
:101AAC00F8027B685B69DB00394913430B603AE051
:101ABC007B681B69002B20D0364B01221A60FFF784
:101ACC0057FC386108E0FFF753FC02463B69D31A18
:101ADC00022B01D903239BE12D4B1B6803F002035E
:101AEC00002BF0D02A4B1B6823F0F8027B685B6953
:101AFC00DB00274913430B6015E0264B00221A60CC
:101B0C00FFF736FC386108E0FFF732FC02463B6910
:101B1C00D31A022B01D903237AE11D4B1B6803F066
:101B2C000203002BF0D17B681B6803F00803002B29
:101B3C003AD07B689B69002B19D0174B01221A6095
:101B4C00FFF716FC386108E0FFF712FC02463B6910
:101B5C00D31A022B01D903235AE10D4B5B6A03F014
:101B6C000203002BF0D0012000F09AFA1CE00A4B83
:101B7C0000221A60FFF7FCFB38610FE0FFF7F8FB5F
:101B8C0002463B69D31A022B08D9032340E100BF5C
:101B9C000010024000004242800442429E4B5B6AAD
:101BAC0003F00203002BE9D17B681B6803F00403EC
:101BBC00002B00F0A6800023FB75974BDB6903F02C
:101BCC008053002B0DD1944BDB69934A43F0805327
:101BDC00D361914BDB6903F08053BB60BB6801237D
:101BEC00FB758E4B1B6803F48073002B18D18B4B49
:101BFC001B688A4A43F480731360FFF7B9FB3861A2
:101C0C0008E0FFF7B5FB02463B69D31A642B01D9F8
:101C1C000323FDE0814B1B6803F48073002BF0D091
:101C2C007B68DB68012B06D17B4B1B6A7A4A43F03D
:101C3C00010313622DE07B68DB68002B0CD1764B23
:101C4C001B6A754A23F001031362734B1B6A724AB9
:101C5C0023F0040313621CE07B68DB68052B0CD1BA
:101C6C006D4B1B6A6C4A43F0040313626A4B1B6A8C
:101C7C00694A43F0010313620BE0674B1B6A664A27
:101C8C0023F001031362644B1B6A634A23F00403C1
:101C9C0013627B68DB68002B15D0FFF769FB38619A
:101CAC000AE0FFF765FB02463B69D31A41F2883222
:101CBC00934201D90323ABE0574B1B6A03F0020399
:101CCC00002BEED014E0FFF753FB38610AE0FFF76E
:101CDC004FFB02463B69D31A41F28832934201D939
:101CEC00032395E04C4B1B6A03F00203002BEED14F
:101CFC00FB7D012B05D1484BDB69474A23F0805310
:101D0C00D3617B68DB69002B00F08180424B5B6800
:101D1C0003F00C03082B61D07B68DB69022B46D1E6
:101D2C003F4B00221A60FFF723FB386108E0FFF7F6
:101D3C001FFB02463B69D31A022B01D9032367E030
:101D4C00354B1B6803F00073002BF0D17B681B6ACA
:101D5C00B3F5803F08D1304B5B6823F400327B68CD
:101D6C009B682D4913434B602B4B5B6823F4741217
:101D7C007B68196A7B685B6A0B43274913434B608A
:101D8C00274B01221A60FFF7F3FA386108E0FFF7DE
:101D9C00EFFA02463B69D31A022B01D9032337E031
:101DAC001D4B1B6803F00073002BF0D02FE01C4B75
:101DBC0000221A60FFF7DCFA386108E0FFF7D8FA66
:101DCC0002463B69D31A022B01D9032320E0124BA4
:101DDC001B6803F00073002BF0D118E07B68DB6903
:101DEC00012B01D1012313E00B4B5B68FB60FB68FB
:101DFC0003F480327B681B6A9A4206D1FB6803F4B9
:101E0C0070127B685B6A9A4201D0012300E00023C8
:101E1C0018461837BD4680BD0010024000700040C7
:101E2C006000424280B584B000AF786039607B6856
:101E3C00002B01D10123D0E06A4B1B6803F0070390
:101E4C003A689A4210D9674B1B6823F00702654920
:101E5C003B6813430B60634B1B6803F007033A6842
:101E6C009A4201D00123B8E07B681B6803F002039F
:101E7C00002B20D07B681B6803F00403002B05D0DB
:101E8C00594B5B68584A43F4E06353607B681B68AA
:101E9C0003F00803002B05D0534B5B68524A43F404
:101EAC0060535360504B5B6823F0F0027B689B6877
:101EBC004D4913434B607B681B6803F00103002BF7
:101ECC0040D07B685B68012B07D1474B1B6803F440
:101EDC000033002B15D101237FE07B685B68022B5C
:101EEC0007D1414B1B6803F00073002B09D1012370
:101EFC0073E03D4B1B6803F00203002B01D101235F
:101F0C006BE0394B5B6823F003027B685B683649F6
:101F1C0013434B60FFF72CFAF8600AE0FFF728FA3E
:101F2C000246FB68D31A41F28832934201D903234B
:101F3C0053E02D4B5B6803F00C027B685B689B00E5
:101F4C009A42EBD1274B1B6803F007033A689A427D
:101F5C0010D2244B1B6823F0070222493B68134321
:101F6C000B60204B1B6803F007033A689A4201D0C0
:101F7C00012332E07B681B6803F00403002B08D0BC
:101F8C00194B5B6823F4E0627B68DB6816491343EA
:101F9C004B607B681B6803F00803002B09D0124BC5
:101FAC005B6823F460527B681B69DB000E491343AA
:101FBC004B6000F021F802460B4B5B681B0903F0E9
:101FCC000F030A49CB5C22FA03F3094A1360094B4D
:101FDC001B681846FFF78AF9002318461037BD46D0
:101FEC0080BD00BF002002400010024010290008F4
:101FFC001C0000202000002080B487B000AF00231C
:10200C00FB600023BB6000237B6100237B6000230B
:10201C003B611E4B5B68FB60FB6803F00C03042BFD
:10202C0002D0082B03D027E0194B3B6127E0FB685B
:10203C009B0C03F00F03174AD35C7B60FB6803F423
:10204C008033002B10D0114B5B685B0C03F0010349
:10205C00114AD35CBB607B680D4A02FB03F2BB6880
:10206C00B2FBF3F37B6104E07B680C4A02FB03F3E5
:10207C007B617B693B6102E0054B3B6100BF3B69C7
:10208C0018461C37BD4680BC704700BF001002408C
:10209C0000127A00202900083029000800093D00B0
:1020AC0080B485B000AF78600A4B1B680A4AA2FB6B
:1020BC0003235B0A7A6802FB03F3FB6000BFFB6837
:1020CC005A1EFA60002BF9D100BF00BF1437BD4671
:1020DC0080BC70471C000020D34D621080B582B0CC
:1020EC0000AF78607B68002B01D1012341E07B6855
:1020FC0093F83D30DBB2002B06D17B68002283F8CD
:10210C003C207868FEF7F4FF7B68022283F83D20C0
:10211C007B681A687B6804331946104600F056FA3F
:10212C007B68012283F846207B68012283F83E20DD
:10213C007B68012283F83F207B68012283F84020D2
:10214C007B68012283F841207B68012283F84220BE
:10215C007B68012283F843207B68012283F84420AA
:10216C007B68012283F845207B68012283F83D209F
:10217C00002318460837BD4680BD000080B485B0EA
:10218C0000AF78607B6893F83D30DBB2012B01D057
:10219C00012335E07B68022283F83D207B681B68B5
:1021AC00DA687B681B6842F00102DA607B681B68A6
:1021BC00164A934209D07B681B68B3F1804F04D058
:1021CC007B681B68124A934211D17B681B689B6821
:1021DC0003F00703FB60FB68062B10D07B681B68C1
:1021EC001A687B681B6842F001021A6007E07B6882
:1021FC001B681A687B681B6842F001021A60002396
:10220C0018461437BD4680BC704700BF002C0140F7
:10221C000004004080B584B000AF78607B681B6818
:10222C00DB68FB607B681B681B69BB60BB6803F0E9
:10223C000203002B20D0FB6803F00203002B1BD001
:10224C007B681B686FF002021A617B6801221A77A7
:10225C007B681B689B6903F00303002B03D0786831
:10226C0000F098F905E0786800F08BF9786800F0D8
:10227C009AF97B6800221A77BB6803F00403002BE1
:10228C0020D0FB6803F00403002B1BD07B681B6879
:10229C006FF004021A617B6802221A777B681B6854
:1022AC009B6903F44073002B03D0786800F072F93B
:1022BC0005E0786800F065F9786800F074F97B68DF
:1022CC0000221A77BB6803F00803002B20D0FB68B0
:1022DC0003F00803002B1BD07B681B686FF008020F
:1022EC001A617B6804221A777B681B68DB6903F030
:1022FC000303002B03D0786800F04CF905E07868F4
:10230C0000F03FF9786800F04EF97B6800221A77EC
:10231C00BB6803F01003002B20D0FB6803F0100304
:10232C00002B1BD07B681B686FF010021A617B6856
:10233C0008221A777B681B68DB6903F44073002B57
:10234C0003D0786800F026F905E0786800F019F9F8
:10235C00786800F028F97B6800221A77BB6803F0D4
:10236C000103002B0CD0FB6803F00103002B07D0FA
:10237C007B681B686FF001021A617868FEF774FEC7
:10238C00BB6803F08003002B0CD0FB6803F08003C8
:10239C00002B07D07B681B686FF080021A6178688D
:1023AC0000F06FFABB6803F04003002B0CD0FB6805
:1023BC0003F04003002B07D07B681B686FF04002D2
:1023CC001A61786800F0F8F8BB6803F02003002B62
:1023DC000CD0FB6803F02003002B07D07B681B6834
:1023EC006FF020021A61786800F042FA00BF1037D3
:1023FC00BD4680BD80B584B000AF786039600023E5
:10240C00FB737B6893F83C30012B01D10223B4E0C1
:10241C007B68012283F83C207B68022283F83D20F4
:10242C007B681B689B68BB60BB6823F07703BB6051
:10243C00BB6823F47F43BB607B681B68BA689A60F7
:10244C003B681B68B3F5005F3ED0B3F5005F00F24C
:10245C008780B3F5805F00F08680B3F5805F7FD80E
:10246C00702B1AD0702B7BD8602B50D0602B77D868
:10247C00502B3CD0502B73D8402B58D0402B6FD8BE
:10248C00302B64D0302B6BD8202B60D0202B67D80E
:10249C00002B5CD0102B5AD062E07B6818683B682C
:1024AC0099683B685A683B68DB6800F06AF97B689E
:1024BC001B689B68BB60BB6843F07703BB607B68A1
:1024CC001B68BA689A604FE07B6818683B6899682B
:1024DC003B685A683B68DB6800F053F97B681B6803
:1024EC009A687B681B6842F480429A603CE07B6887
:1024FC0018683B6859683B68DB681A4600F0CAF8F4
:10250C007B681B685021184600F021F92CE07B6891
:10251C0018683B6859683B68DB681A4600F0E8F8B5
:10252C007B681B686021184600F011F91CE07B6881
:10253C0018683B6859683B68DB681A4600F0AAF8D3
:10254C007B681B684021184600F001F90CE07B68A1
:10255C001A683B681B681946104600F0F8F803E04F
:10256C000123FB7300E000BF7B68012283F83D2050
:10257C007B68002283F83C20FB7B18461037BD4655
:10258C0080BD80B483B000AF786000BF0C37BD460F
:10259C0080BC704780B483B000AF786000BF0C374C
:1025AC00BD4680BC704780B483B000AF786000BF7C
:1025BC000C37BD4680BC704780B483B000AF7860E8
:1025CC0000BF0C37BD4680BC7047000080B485B09E
:1025DC0000AF786039607B681B68FB607B682B4AB6
:1025EC00934207D07B68B3F1804F03D07B68284AB5
:1025FC00934208D1FB6823F07003FB603B685B6877
:10260C00FA681343FB607B68204A934207D07B68CF
:10261C00B3F1804F03D07B681D4A934208D1FB680D
:10262C0023F44073FB603B68DB68FA681343FB6080
:10263C00FB6823F080023B685B691343FB607B689B
:10264C00FA681A603B689A687B68DA623B681A68B9
:10265C007B689A627B680D4A934203D13B681A6986
:10266C007B681A637B6801225A617B681B6903F0E3
:10267C000103002B05D07B681B6923F001027B68EA
:10268C001A6100BF1437BD4680BC7047002C014056
:10269C000004004080B487B000AFF860B9607A6085
:1026AC00FB681B6A7B61FB681B6A23F00102FB68F9
:1026BC001A62FB689B693B613B6923F0F0033B6149
:1026CC007B681B013A6913433B617B6923F00A0366
:1026DC007B617A69BB6813437B61FB683A699A61D9
:1026EC00FB687A691A6200BF1C37BD4680BC704714
:1026FC0080B487B000AFF860B9607A60FB681B6A81
:10270C007B61FB681B6A23F01002FB681A62FB6892
:10271C009B693B613B6923F470433B617B681B0302
:10272C003A6913433B617B6923F0A0037B61BB686F
:10273C001B017A6913437B61FB683A699A61FB68F8
:10274C007A691A6200BF1C37BD4680BC704780B4E2
:10275C0085B000AF786039607B689B68FB60FB6874
:10276C0023F07003FB603A68FB68134343F00703E4
:10277C00FB607B68FA689A6000BF1437BD4680BC6A
:10278C00704780B487B000AFF860B9607A603B6086
:10279C00FB689B687B617B6923F47F437B613B68AF
:1027AC001A027B681A43BB6813437A6913437B6133
:1027BC00FB687A699A6000BF1C37BD4680BC7047C5
:1027CC0080B485B000AF786039607B6893F83C309A
:1027DC00012B01D1022341E07B68012283F83C20CC
:1027EC007B68022283F83D207B681B685B68FB607A
:1027FC007B681B689B68BB60FB6823F07003FB6005
:10280C003B681B68FA681343FB607B681B68FA68BB
:10281C005A607B681B68144A934209D07B681B681A
:10282C00B3F1804F04D07B681B68104A93420CD1E3
:10283C00BB6823F08003BB603B685B68BA681343DA
:10284C00BB607B681B68BA689A607B68012283F85E
:10285C003D207B68002283F83C2000231846143767
:10286C00BD4680BC704700BF002C014000040040F6
:10287C0080B483B000AF786000BF0C37BD4680BC1D
:10288C00704780B483B000AF786000BF0C37BD4692
:10289C0080BC704770B500260C4D0D4C641BA41009
:1028AC00A64209D100F022F800260A4D0A4C641BFE
:1028BC00A410A64205D170BD55F8043B98470136CB
:1028CC00EEE755F8043B98470136F2E73429000847
:1028DC00342900083429000838290008034602442A
:1028EC00934200D1704703F8011BF9E7F8B500BF1C
:1028FC00F8BC08BC9E467047F8B500BFF8BC08BCD5
:04290C009E4670472C
:10291000000000000000000001020304060708098F
:1029200002030405060708090A0B0C0D0E0F101010
:0429300001020000A0
:042934003101000865
:042938000D01000885
:10293C00030000000300000005000000050000007B
:10294C0005000000030000000200000000127A00E5
:08295C00100000000100000062
:04000005080012815C
:00000001FF
